:020000040800F2
:100000009004002001010008090100080B0100080C
:100010000D0100080F010008110100080000000098
:1000200000000000000000000000000013010008B4
:100030001501000800000000170100081901000860
:100040001B0100081B0100081B0100081B01000820
:100050001B0100081B0100081B0100081B01000810
:100060001B0100081B0100081B0100081B01000800
:100070001B0100081B0100081B0100081B010008F0
:100080001B0100081B0100081B0100081B010008E0
:100090001B0100081B0100081B0100081B010008D0
:1000A0001B0100081B0100081B0100081B010008C0
:1000B0001B0100081B0100082F2300081B0100087A
:1000C0001B0100081B0100081B0100081B010008A0
:1000D0001B0100081B0100081B0100081B01000890
:1000E0001B0100081B0100081B010008DFF80CD0F1
:1000F00002F02AFF00480047FD1C00089004002081
:100100000648804706480047FEE7FEE7FEE7FEE7B1
:10011000FEE7FEE7FEE7FEE7FEE7FEE70102000876
:10012000ED0000080CB50020019000906B480068BD
:1001300040F480306949086000BF6848006800F4F6
:10014000003000900198401C0190009818B9019867
:10015000B0F5A06FF1D16148006810F4003F02D003
:100160000120009001E0002000900098012842D179
:100170005B48006840F01000594908600846006874
:1001800020F0030008600846006840F002000860A4
:1001900052484068514948600846406848600846EF
:1001A000406840F4806048600846406820F47C1055
:1001B00048600846406840F4E81048600846006817
:1001C00040F08070086000BF4448006810F0007F75
:1001D000FAD04248406820F0030040494860084691
:1001E000406840F00200486000BF3C48406800F0B2
:1001F0000C000828F9D10CBD10B5FFF793FF10BD16
:1002000010B53648006840F00100344908600846DF
:10021000406834490840314948600846006832491E
:1002200008402E4908600846006820F480200860D5
:100230000846406820F4FE0048604FF41F008860C4
:10024000FFF7DAFF4FF000602849086010BD10B5D5
:10025000002100200022214B5B6803F00C0121B13A
:10026000042906D0082928D107E0214B214C23601E
:1002700027E01F4B1F4C236023E0184B5B6803F4FF
:100280007010164B5B6803F48032022303EB90403E
:1002900022B9194B4343174C23600DE00F4B5B68A9
:1002A00013F4003F04D0144B4343124C236003E08B
:1002B0000F4B43430F4C236003E00D4B0D4C236069
:1002C00000BF00BF054B5B68C3F303130B4CE15C3D
:1002D000084B1B68CB40074C236010BD0010024048
:1002E000002002400000FFF8FFFFF6FE08ED00E0EE
:1002F00000127A000000002000093D0004000020E8
:1003000031490143314A1160704770B50021002323
:100310000F22C4780CB32D4C246804F4E064C4F5B7
:10032000E064210AC1F10403CA40447804FA03F1ED
:100330008478144021430901254C0678A15504789E
:1003400004F01F050124AC4005786D114FF0E02644
:1003500006EB8505C5F8004109E0047804F01F05A7
:100360000124AC401B4D0678761145F8264070BD3F
:10037000194A0A400243154B1B1F1A60704739B1D6
:10038000124A121D12680243104B1B1D1A6006E030
:100390000E4A121D126882430C4B1B1D1A607047D7
:1003A000042808D14FF0E021096941F004014FF021
:1003B000E022116107E04FF0E021096921F004011A
:1003C0004FF0E022116170470000FA050CED00E0EB
:1003D00000E400E080E100E080FFFF1F10B504466C
:1003E000CA48844208D10121042000F027FB0021E3
:1003F000042000F023FB46E0C548844208D10121D7
:10040000082000F01BFB0021082000F017FB3AE059
:10041000C048844208D10121102000F00FFB0021C8
:10042000102000F00BFB2EE0BB48844208D10121D4
:10043000202000F003FB0021202000F0FFFA22E042
:10044000B648844208D10121402000F0F7FA00218B
:10045000402000F0F3FA16E0B148844208D10121AF
:10046000802000F0EBFA0021802000F0E7FA0AE09B
:10047000AC48844207D10121801500F0DFFA002149
:10048000A01500F0DBFA10BD10B50121084600F000
:10049000D5FA0021012000F0D1FA10BD2DE9F0417C
:1004A000024600250026002000230024002791F8A2
:1004B00003C00CF00F0591F803C01CF0100F03D01F
:1004C00091F802C04CEA050591F800C0BCF1000F9C
:1004D00031D0146800202BE04FF0010C0CFA00F32F
:1004E000B1F800C00CEA03069E4220D183004FF011
:1004F0000F0C0CFA03F7BC4305FA03FC4CEA0404A6
:1005000091F803C0BCF1280F06D14FF0010C0CFA92
:1005100000FCC2F814C00AE091F803C0BCF1480F17
:1005200005D14FF0010C0CFA00FCC2F810C0401CC1
:100530000828D1D31460B1F800C0BCF1FF0F34DD3E
:10054000546800202EE000F1080C4FF0010808FA72
:100550000CF3B1F800C00CEA03069E4221D18300DF
:100560004FF00F0C0CFA03F7BC4305FA03FC4CEAFE
:10057000040491F803C0BCF1280F05D100F1080C68
:1005800008FA0CF8C2F8148091F803C0BCF1480FC7
:1005900007D100F1080C4FF0010808FA0CF8C2F876
:1005A0001080401C0828CED35460BDE8F0814FF67F
:1005B000FF710180022181700421C17070470246E1
:1005C000002093680B4201D0012000E0002070471A
:1005D0000146886880B2704702460020D3680B420B
:1005E00001D0012000E0002070470146C86880B2B9
:1005F000704701617047416170470AB1016100E0D5
:1006000041617047C16070474FF480320A43826194
:100610008161826182698269704702460020424B93
:1006200018684FF68073184040EA021008433E4BAA
:10063000186070473D49C8617047F0B50A4600230D
:1006400000240021002500F00046B6F1004F02D141
:10065000354EF16901E0344E7168C0F3034583B251
:1006600000F44016B6F5401F08D121F070612E4EFF
:10067000766826F070662C4F7E6012E000F48016DB
:10068000B6F5801F06D1032606FA05F4A14341F012
:10069000706106E0460D360103FA06F6B14341F0FB
:1006A000706122B1460D360103FA06F6314300F0BF
:1006B0000046B6F1004F02D11B4EF16101E01A4E27
:1006C0007160F0BD30B500228B071C0F0F2303FAB9
:1006D00004F2154B08338C1053F824309343124C1A
:1006E00008348D1044F8253023468C1053F82430FC
:1006F0008C07240F00FA04F423430B4C08348D10AC
:1007000044F8253030BD0A490860704700080140B0
:10071000000C01400010014000140140001801408D
:10072000001C014000200140000001400000204268
:10073000DC002042DD48006840F00100DB49086031
:1007400008464068DA490840D849486008460068C9
:10075000D8490840D54908600846006820F4802040
:1007600008600846406820F4FE0048604FF41F000F
:1007700088607047CD49096821F48031CB4A116007
:100780001146096821F480211160B0F5803F03D043
:10079000B0F5802F0ED106E0C449096841F48031DC
:1007A000C24A116007E0C149096841F4A021BF4A6B
:1007B000116000E000BF00BF704710B50146002285
:1007C000002300204A11012A02D1B84C236806E018
:1007D000022A02D1B54C236A01E0B44C636A01F0ED
:1007E0001F02012494401C4201D0012000E000209F
:1007F00010BD38B5002000900024002500BF312036
:10080000FFF7DBFF05460098401C00900098B0F50C
:10081000A06F01D0002DF2D03120FFF7CEFF08B13C
:10082000012400E00024204638BD014600209F4AF4
:10083000106820F0F80040EAC100106070479E493F
:100840000860704702460020984B586820F47C10DE
:1008500042EA01031843954B586070479649086671
:10086000704701460020914A506820F00300084379
:10087000506070478D48406800F00C00704701469A
:1008800000208A4A506820F0F0000843506070470A
:1008900001460020854A506820F4E060084350601B
:1008A000704701460020814A506820F4605040EAB9
:1008B000C1005060704729B17C4A527A02437B4B99
:1008C0005A7204E0794A527A8243784B5A727047DE
:1008D0007A490860704701460020744A506820F445
:1008E00040400843506070470021754A11706F4ABC
:1008F00082F82010012802D0042808D103E0012149
:100900006F4A117004E005216D4A117000E000BFCC
:1009100000BF70476B49086070476449096A01432A
:10092000624A11627047674944390860704730B5C0
:1009300000210022002400235C4D6D6805F00C01AD
:1009400021B1042905D0082923D105E05E4D0560B9
:1009500022E05D4D05601FE0544D6D6805F4701296
:10096000524D6D6805F48034022505EB92421CB9A6
:10097000564D554305600BE04C4D6D6815F4003F36
:1009800003D0524D5543056002E04F4D554305607D
:1009900002E04D4D056000BF00BF444D6D6805F09D
:1009A000F00109094A4D6B5C0568DD4045603F4D2B
:1009B0006D6805F4E061090A454D6B5C4568DD40F2
:1009C00085603A4D6D6805F46051C90A404D6B5C15
:1009D0004568DD40C560354D6D6805F44041890BC3
:1009E0003C4D6B5CC568B5FBF3F5056130BD29B1C5
:1009F0002E4A526902432D4B5A6104E02B4A526938
:100A000082432A4B5A61704729B1284A92690243AE
:100A1000264B9A6104E0254A92698243234B9A61EE
:100A2000704729B1214AD2690243204BDA6104E0C0
:100A30001E4AD26982431D4BDA61704729B11B4AB5
:100A4000D2680243194BDA6004E0184AD268824344
:100A5000164BDA60704729B1144A12690243134BEE
:100A60001A6104E0114A12698243104B1A617047FF
:100A700014494039086070470F49C86470470B49F2
:100A8000C87170470948406A40F080700749486261
:100A9000704701460020054A92680A4201D00120B1
:100AA00000E0002070470149887270470010024042
:100AB0000000FFF8FFFFF6FE00004242D80042426D
:100AC000201002408004424200127A0000093D00DA
:100AD000140000202400002010B50446FB48844286
:100AE00009D101218803FFF7A9FF00214FF48040BD
:100AF000FFF7A4FF32E0F648844209D101214804FF
:100B0000FFF7A9FF00214FF40030FFF7A4FF25E015
:100B1000F048844209D101218804FFF79CFF00219D
:100B20004FF48020FFF797FF18E0EB48844209D18B
:100B30000121C804FFF78FFF00214FF40020FFF7C9
:100B40008AFF0BE0E548844208D101210805FFF740
:100B500082FF00214FF48010FFF77DFF10BD2DE9CB
:100B6000F04786B005460E460024A24600BFA146C7
:100B70000027B08900B100BF2F462C8A4CF6FF70C9
:100B80000440F08804432C82AC894EF6F3100440F4
:100B9000B08831890843718908430443AC81AC8A29
:100BA0004FF6FF400440B0890443AC8201A8FFF730
:100BB000BEFEC648874202D1DDF810A001E0DDF894
:100BC0000CA0A88910F4004F08D00AEBCA0000EB73
:100BD0000A1031684900B0FBF1F807E00AEBCA00DF
:100BE00000EB0A1031688900B0FBF1F86420B8FB13
:100BF000F0F004012009642101FB1089A88910F498
:100C0000004F08D0322000EBC900B0FBF1F000F03B
:100C10000700044308E0322000EB09106421B0FB18
:100C2000F1F000F00F0004432C8106B0BDE8F0871E
:100C30004FF41651016000218180C18001810C2197
:100C4000418100218181704710B502460020108A41
:100C50004FF2FF0318400B884C8823438C882343B2
:100C6000CC8823431843108210BD002101804180AD
:100C70008180C180704721B1828942F40052828113
:100C800004E082894DF6FF731A4082817047F0B507
:100C900003460024002600250020A1F510676A3FC6
:100CA00000D100BF1846C1F3421401F01F0601270E
:100CB00007FA06F5012C01D10C3004E0022C01D119
:100CC000103000E014301AB107682F43076002E0CB
:100CD0000768AF430760F0BD1AB1838A0B43838274
:100CE00002E0838A8B4383827047028A4FF6F07357
:100CF0001A400282028A0A430282704782894FF2B6
:100D0000FF731A40828182890A438281704721B130
:100D1000828942F00202828104E082894FF6FD73EB
:100D20001A4082817047028A4FF6DF731A400282AE
:100D3000028A0A430282704721B1028A42F4804249
:100D4000028204E0028A4BF6FF731A400282704767
:100D5000C1F308028280704701468888C0F308000A
:100D60007047818941F0010181817047028BD2B2C5
:100D70000283028B42EA012202837047028B02F453
:100D80007F420283028B0A430283704721B1828A29
:100D900042F02002828204E0828A4FF6DF731A401A
:100DA0008282704721B1828A42F01002828204E07E
:100DB000828A4FF6EF731A408282704721B1828A8D
:100DC00042F00802828204E0828A4FF6F7731A40EA
:100DD0008282704721B1828942F40042828103E01D
:100DE0008289C2F30E028281704721B1828A42F465
:100DF0000062828204E0828A4FF2FF731A4082828C
:100E00007047828A4FF6FB731A408282828A0A43B5
:100E10008282704721B1828A42F00202828204E01B
:100E2000828A4FF6FD731A40828270470246002084
:100E3000B1F5007F00D100BF13880B4201D0012023
:100E400000E00020704701F40072B2F5007F00D18D
:100E500000BFCA430280704770B5024600240023D9
:100E600000250020A1F510666A3E00D100BFC1F345
:100E7000421501F01F03012606FA03F3012D02D1EA
:100E80009689334006E0022D02D1168A334001E0F4
:100E9000968A33400C12012606FA04F41688344070
:100EA00013B10CB1012000E0002070BD10B500228C
:100EB0000023A1F510646A3C00D100BF0A1201248E
:100EC0009440A3B2DC43048010BD00000038014010
:100ED0000044004000480040004C004000500040EA
:100EE00010B50446FE48844208D10121C014FFF722
:100EF000A5FD0021E014FFF7A1FDC4E0B4F1804F8F
:100F000008D101210846FFF7A6FD00210120FFF7C7
:100F1000A2FDB8E0F348844208D101210220FFF786
:100F20009AFD00210220FFF796FDACE0EE488442D6
:100F300008D101210420FFF78EFD00210420FFF7D6
:100F40008AFDA0E0E948844208D101210820FFF78A
:100F500082FD00210820FFF77EFD94E0E4488442F2
:100F600008D101211020FFF776FD00211020FFF7A6
:100F700072FD88E0DF48844208D101212020FFF77C
:100F80006AFD00212020FFF766FD7CE0DA488442FC
:100F900008D101214014FFF751FD00216014FFF733
:100FA0004DFD70E0D548844209D10121C804FFF706
:100FB00045FD00214FF40020FFF740FD63E0D048DD
:100FC000844209D101210805FFF738FD00214FF4C3
:100FD0008010FFF733FD56E0CA48844209D1012151
:100FE0004805FFF72BFD00214FF40010FFF726FD09
:100FF00049E0C548844208D101214020FFF72BFD7C
:1010000000214020FFF727FD3DE0C048844208D181
:1010100001218020FFF71FFD00218020FFF71BFD2D
:1010200031E0BB48844208D101218015FFF713FD50
:101030000021A015FFF70FFD25E0B648844209D135
:1010400001210804FFF7FAFC00214FF48030FFF77C
:10105000F5FC18E0B048844209D101214804FFF7AB
:10106000EDFC00214FF40030FFF7E8FC0BE0AB484B
:10107000844208D101218804FFF7E0FC00214FF4ED
:101080008020FFF7DBFC10BD00220288944B9842C1
:101090000ED0994B98420BD0B0F1804F08D0914BB5
:1010A000984205D0904B984202D0904B984204D180
:1010B0004FF68F731A404B881A438D4B984207D0D6
:1010C0008C4B984204D04FF6FF431A40CB881A430A
:1010D00002808B8883850B880385814B98420BD0D7
:1010E000854B984208D08B4B984205D08A4B98424A
:1010F00002D08A4B984201D10B7A03860123838266
:10110000704770B5002400220023058C4FF6FE7650
:1011100035400584028C8388048B4FF68F752C40F4
:10112000B51E2C400D882C43751E2A400D892A437C
:101130004D882A436A4DA8420BD06F4DA84208D073
:10114000744DA84205D0744DA84202D0734DA842F8
:1011500013D14FF6F7752A404D892A434FF6FB7598
:101160002A408D882A434FF6FF652B404FF6FF55E6
:101170002B408D892B43CD892B4383800483CD88DD
:101180008586028470BD70B5002400220023058C82
:101190004FF6EF7635400584028C8388048B48F641
:1011A000FF752C404FF6FF452C400D884FF6FF761B
:1011B00006EA05252C434FF6DF752A400D8906EA1D
:1011C00005152A434D8806EA05152A43444DA842D1
:1011D00002D0494DA8421DD14FF67F752A404D8956
:1011E0004FF6FF7606EA05152A434FF6BF752A40EB
:1011F0008D8806EA05152A434FF6FF352B404FF23E
:10120000FF752B408D8906EA85052B43CD8906EABB
:1012100085052B4383800483CD880587028470BDB8
:1012200070B5002400220023058C4FF6FF66354080
:101230000584028C8388848B4FF68F752C404FF683
:10124000FC752C400D882C434FF6FF552A400D8924
:101250004FF6FF7606EA05252A434D8806EA05255E
:101260002A431F4DA84202D0234DA8421DD14FF260
:10127000FF752A404D894FF6FF7606EA05252A4379
:101280004FF6FF352A408D8806EA05252A434EF69B
:10129000FF752B404DF6FF752B408D8906EA05152D
:1012A0002B43CD8906EA05152B4383808483CD88A3
:1012B0008587028470BD70B5002200230024058C50
:1012C0004EF6FF7635400584038C8488828B48F681
:1012D000FF752A404FF6FF452A400D8820E00000A8
:1012E000002C01400004004000080040000C0040B9
:1012F000001000400014004000340140004C014048
:10130000005001400054014000180040001C004003
:1013100000200040004001400044014000480140DE
:101320004FF6FF7606EA05252A434DF6FF752B405A
:101330000D8906EA05352B434D8806EA05352B4312
:10134000FA4DA84202D0FA4DA84208D14BF6FF75DB
:101350002C408D894FF6FF7606EA85152C43848054
:101360008283CD88A0F84050038470BD828B4FF2F9
:10137000FF331A408283828B4FF6FF7303EA012307
:101380001A4382837047F0B50C46154600220021AF
:101390000026078C4EF6FF7C07EA0C070784828B39
:1013A000018C4FF6FF7707EA043640F6FF473A40D4
:1013B0004FF6FF7707EA05273A434FF6FF7707EA2C
:1013C00003373A43D94FB8420ED0D94FB8420BD069
:1013D000B0F1804F08D0D74FB84205D0D64FB842B1
:1013E00002D0D64FB84206D14DF6FF77394046F4C9
:1013F0008057394305E047F6FF57394044F480579A
:10140000394382830184F0BD828B4FF6F3731A4017
:101410008283828B0A4382837047F0B50C4615465F
:10142000002200210026078C4FF6FF6C07EA0C070C
:101430000784828B018C4FF6FF7707EA04264FF66C
:101440000C773A404FF6FF7707EA03172F433A43EA
:10145000B64FB8420ED0B64FB8420BD0B0F1804F65
:1014600008D0B44FB84205D0B34FB84202D0B34F02
:10147000B84206D14FF6FF57394046F480773943DA
:1014800005E04FF2FF57394044F4807739438283B7
:101490000184F0BD028B4FF2FF331A400283028BAE
:1014A0004FF6FF7303EA01231A4302837047F0B536
:1014B0000C461546002200210026078C4FF6EF7CD3
:1014C00007EA0C070784028B018C4FF6FF7707EAC7
:1014D000041640F6FF473A404FF6FF7707EA033716
:1014E0003A434FF6FF7707EA05273A438F4FB84252
:1014F0000ED08F4FB8420BD0B0F1804F08D08D4F37
:10150000B84205D08C4FB84202D08C4FB84206D1B9
:101510004FF6DF77394046F01007394305E04FF6C4
:101520005F77394044F01007394302830184F0BDEE
:10153000028B4FF6F3731A400283028B0A43028335
:101540007047F0B50C46154600220021068C4FF678
:10155000FE773E400684028B018C4FF60C763240BB
:101560007E1C06EA03162E433243704EB0420ED064
:101570006F4EB0420BD0B0F1804F08D06D4EB042EC
:1015800005D06D4EB04202D06C4EB04206D14FF63F
:10159000FD76314044F00106314305E04FF6F57623
:1015A000314044F00106314302830184F0BD70B53F
:1015B00005460C465D4885420ED05D4885420BD0FD
:1015C000B5F1804F08D05B48854205D05A48854226
:1015D00002D05A48854200D100E000BF208850B9AF
:1015E0002389A28861882846FFF7ABFFE188284657
:1015F000FFF79EFF25E0208804280AD12389A288CE
:1016000061882846FFF753FFE1882846FFF742FF2D
:1016100017E0208808280AD12389A28861882846F3
:10162000FFF7FBFEE1882846FFF7EEFE09E023897D
:10163000A28861882846FFF7A6FEE1882846FFF7C2
:1016400095FE70BD2DE9F04105460C4600260127A8
:10165000608808B9022600E00026A088012801D190
:10166000022700E001272088A0B92389A288618889
:101670002846FFF766FFE1882846FFF759FF2389D0
:101680003A4631462846FFF712FFE1882846FFF721
:1016900001FF13E02389A28861882846FFF707FF2E
:1016A000E1882846FFF7F6FE23893A463146284668
:1016B000FFF747FFE1882846FFF73AFFBDE8F081D2
:1016C0000A884B881A438B881A43CB881A430B89A4
:1016D0001A434B891A438B891A43A0F84420704758
:1016E0004FF6FF71818000210180C180418001722D
:1016F00070470021018041808180C180018141814A
:101700008181C18170470021018041800121818058
:101710000021C180018170470021018041808180CA
:10172000C18001814181818170470000002C01400E
:10173000003401400004004000080040000C00405C
:1017400021B1028842F00102028004E002884FF6D3
:10175000FE731A400280704731B1B0F8442042F461
:101760000042A0F8442005E0B0F84420C2F30E0285
:10177000A0F8442070471AB183890B43838102E0AB
:1017800083898B43838170478182704741EA0203DA
:10179000A0F8483070471AB183890B43838102E077
:1017A00083898B438381704701894FF6F87211401A
:1017B000018170470A46002101894FF68F73194055
:1017C00011430181704730B504460D462946204635
:1017D000FFF7F0FF208940F00700208130BD2DE9A0
:1017E000F04104460D4616461F46602D06D13B4685
:1017F000012231462046FFF75AFE05E03B46012212
:1018000031462046FFF79DFE29462046FFF7D2FFCE
:10181000208940F007002081BDE8F08130B50C46FA
:1018200000210189C9B24FF6FF7505EA032515436A
:1018300025432943018130BD2DE9F04105460E467F
:1018400017469846002443463A4631462846FFF755
:10185000E5FF2C894FF6F870044044F007044FF67A
:101860008F70044044F070042C81BDE8F081F0B525
:1018700004460D4616461F463B463246294620463C
:10188000FFF7CCFF208940F480402081F0BD018526
:10189000828270470A46002101884FF68F731940F3
:1018A000114301807047F0B50C4615461E460021D5
:1018B000002200230189028B038C4FF6F877394010
:1018C00021434FF6FC473A4040F201173A434FF6A6
:1018D000DD773B404FF6FF7707EA06172F433B4380
:1018E000018102830384F0BD0A460021018B4FF67B
:1018F0008F7319401143018370470A460021018B01
:1019000048F6FF7319404FF6FF7303EA02231943A9
:10191000018370470A460021818B4FF68F7319406F
:101920001143818370470A460021818B48F6FF737B
:1019300019404FF6FF7303EA02231943818370476E
:1019400021B1028842F08002028004E002884FF652
:101950007F731A400280704721B1828842F00402EE
:10196000828004E082884FF6FB731A4082807047C1
:1019700021B1828842F00802828004E082884FF61A
:10198000F7731A408280704721B1828842F00102C9
:10199000828004E082884FF6FE731A40828070478E
:1019A0000A460021018B4FF6F7731940114301835A
:1019B00070470A460021018B4FF2FF7319404FF622
:1019C000FF7303EA02231943018370470A4600218B
:1019D000818B4FF6F77319401143818370470A4694
:1019E0000021818B4FF2FF7319404FF6FF7303EA1A
:1019F00002231943818370470A460021018B4FF669
:101A0000FB7319401143018370470A460021018B83
:101A10004FF6FF3319404FF6FF7303EA02231943D1
:101A2000018370470A460021818B4FF6FB731940F2
:101A30001143818370470A460021818B4FF6FF33A3
:101A400019404FF6FF7303EA02231943818370475D
:101A50000A460021018B4FF67F7319401143018321
:101A600070470A460021018BC1F30E014FF6FF7348
:101A700003EA02231943018370470A460021818B40
:101A80004FF67F7319401143818370470A46002146
:101A9000818BC1F30E014FF6FF7303EA0223194352
:101AA000818370470A460021018C4FF6FD7319406F
:101AB0001143018470470A460021018C4FF6F773E9
:101AC00019401143018470470A460021018C4FF6EA
:101AD000DF7319404FF6FF7303EA021319430184C1
:101AE00070470A460021018C4FF67F7319404FF66C
:101AF000FF7303EA02131943018470470A46002169
:101B0000018C4FF6FF5319404FF6FF7303EA02238F
:101B10001943018470470A460021018C4FF2FF737C
:101B200019404FF6FF7303EA0223194301847047FB
:101B30000A460021018C4DF6FF7319404FF6FF73E2
:101B400003EA023319430184704730B500230124AE
:101B50008C40A3B2048C9C430484048C02FA01F5EB
:101B6000ADB22C43048430BD30B5002304248C4036
:101B7000A3B2048C9C430484048C02FA01F5ADB238
:101B80002C43048430BD70B5034600200024184661
:101B9000183001258D40ACB21D8CA5431D8409B1C0
:101BA000082909D100EB6100056825F07005056082
:101BB0000568154305600EE00D1FC5F34E0528446A
:101BC000056825F4E045056005684FF6FF7606EAEE
:101BD00002263543056070BD21B1028842F0020241
:101BE000028004E002884FF6FD731A4002807047BD
:101BF00021B1028842F00402028004E002884FF61C
:101C0000FB731A400280704721B1828842F0800243
:101C1000828004E082884FF67F731A40828070478A
:101C200002884FF6F7731A40028002880A43028046
:101C3000704782884FF68F731A40828082880A43E9
:101C40008280704702894FF6F8731A400281028938
:101C50000A430281704702894FF67F731A4002815E
:101C600002890A43028170478184704781857047E9
:101C7000818670470187704781877047A0F84010C0
:101C8000704702884FF6FF431A40028002880A43D9
:101C9000028070470146888E70470146088F704762
:101CA0000146888F70470146B1F8400070470146F1
:101CB000888C70470146088D704702460020138AC1
:101CC0000B4201D0012000E000207047CA4302828D
:101CD000704730B50246002000230024158A05EA2B
:101CE0000103958905EA010413B10CB1012000E05C
:101CF000002030BDCA43028270470000092000F076
:101D000024F900F08FFA00F065F900F059FD00F0B9
:101D1000D5FA00BF5A2000F05FFB0020134908608D
:101D2000134800680528F5DC124800680528F1DC36
:101D3000012008604FF000000F4908774FF0A50020
:101D4000C876C87711E05A2000F046FB0B480068BF
:101D500030B9A5200849887201200949086004E0CB
:101D600000200549887206490860ECE78481214219
:101D7000300000203C0000204C000020288121423F
:101D80008C812142884A0A400243884B1A6070477E
:101D90000146072323EA01021202844B1B1D186827
:101DA0004FF6FF031840824B184310437F4B1B1D17
:101DB000186070472DE9F04306460F4614461D464D
:101DC0002046E11704EB91718910A4EB810101F029
:101DD000FF09042000EBC90000F0FF092846FFF7C7
:101DE000D7FFC5F1040006FA00F80F20284138405B
:101DF00040EA080808F00F08202C0CDA6D4800684B
:101E00004FF0010101FA04F140EA01004FF0E02136
:101E1000C1F800010DE068480068A4F120014FF00E
:101E2000010202FA01F240EA02004FF0E021C1F89B
:101E30000401BDE8F08370B504460B46CE1701EBF4
:101E40009676B010CE1701EB9676B610A1EB86060B
:101E5000B606350E594B9B6943F00103574EB361EB
:101E60004FEAB63353F820300F26AE40B343544EFA
:101E700046F82030334653F8203004FA05F6334351
:101E80004F4E46F820304F4B1E6801238B401E43B7
:101E90004C4B1E6012F0010F08D04A4B0C331B68EC
:101EA00001268E403343474E0C36336012F0020F4A
:101EB00008D0444B08331B6801268E403343414E03
:101EC0000836336070BD00203C490861C8601420AA
:101ED000486100208861C8610846006840F0010040
:101EE0000860084640683849084034494860084658
:101EF000006836490840314908600846006820F407
:101F0000802008600846406820F4FE0048600020F9
:101F1000886070472648001D2449091D08607047E5
:101F200001464906254A926942F00102234B9A6113
:101F3000234A083A526822F0E062214B083B5A607B
:101F40001A4652680A435A60704701461B480068A7
:101F500040F00100194A106000BF1848006810F0F6
:101F6000020FFAD015484268881E42EA8040134AA0
:101F700050601046406850601046006840F0807025
:101F8000106000BF0D48006810F0007FFAD00B48C9
:101F9000406840F00200094A50608806000E0C4A72
:101FA000107010460078704780FFFF1F08ED00E0BA
:101FB0000000FA0500E100E004E100E0001002404A
:101FC00008000140000401400000FFF8FFFFF6FE9A
:101FD000280000208848806940F004008649886114
:101FE0008648006800F07040844908608248806933
:101FF00040F40070804988610846C06840F4007071
:10200000C8600846C06820F40070C8600846406890
:1020100020F4404048600846406840F40040486072
:1020200077480068774908407549086008460068A5
:1020300008600846006820F480700860081D006889
:1020400020F00200091D08600846006820F46020A6
:1020500008600846006840F4602008600846006890
:1020600040F4801008600846006820F400600860B2
:102070000846006840F400000860614828300068A5
:1020800020F470005E49283108600846006800208E
:1020900008605B480C30006820F0380058490C316B
:1020A00008600846006840F038000860081F0068B3
:1020B00020F4E010091F08600846006840F4E010B2
:1020C0000860081F006840F00100091F086008460A
:1020D000006840F00800086000BF4948001D006823
:1020E00010F0080FF9D14648001D006840F00400C8
:1020F0004349091D086000BF4148001D006810F0F9
:10210000040FF9D1704701463D483030006820F097
:102110001F003B4A303210601046006808431060D0
:102120003748001D006840F48000354A121D1060D9
:1021300000BF3348001F006810F0020FF9D030488C
:102140004830006880B2704770B506460B460024E0
:10215000002505E03046FFF7D6FF0444681CC5B2F1
:102160009D42F7DBB4FBF3F080B270BD2DE9FE4F6A
:102170000024A14608E01020FFF7C5FF204484B2E8
:1021800009F1010000F0FF09B9F1140FF3DB14208D
:1021900094FBF0F084B2204600F0D2FD824600F0BD
:1021A000EDFD07464FF06632174B00F0E8FC0546A0
:1021B00000F0F7FD0290029800F0E0FD0546134A9A
:1021C000134B00F0D9FC0746124A134B00F049FDAF
:1021D0000022124BCDE9000100F02AFC824600F0FB
:1021E000E0FD02900E49029800F0ECFB029002988C
:1021F00000F0ABFDBDE8FE8F00100240000801407A
:1022000004240140FFFFF00066664A3FE17A14AE05
:1022100047E1F63F22FDF675E09C713F0000394032
:10222000000020411F48806940F008001D49886176
:102230000846806940F0010088611B4800684FF241
:10224000FF018843184908600846006843F23301DB
:10225000084315490860081D006820F47040091DF6
:1022600008600846006840F4405008600E480C3092
:10227000006840F60B0108430B490C3108600B481D
:10228000406840F000700949486000200849086033
:102290000849C1F88401084908600649C1F8AC0141
:1022A0007047000000100240000C01400000014097
:1022B00080812142008021428C8121421FB5012171
:1022C0000420FEF7AEFB3C48FEF70AFE4FF47A709E
:1022D000ADF808002320ADF804000020ADF80A0096
:1022E000ADF8060001A93448FEF7CEFE01213248C0
:1022F000FFF7ECFC012211462F48FFF73CFA4FF4A0
:10230000A060FDF7FDFF1E208DF8000001208DF874
:10231000010000208DF8020001208DF803006846BE
:10232000FDF7F3FF01212448FFF70AFA1FBD10B59E
:1023300001212148FFF7CDFC00283BD01F48006851
:10234000401C1E490860084600683B2802D1012055
:102350001B490860194800683C2804D1002018492E
:102360000860164908601748007800EB80004FEAC3
:1023700040604FEA1060144908701248008800EB72
:102380008000C0F3D710487010480078887010485B
:102390000078C8700F48007808710A48006805285E
:1023A00001DC002000E0A5200749C8770121024890
:1023B000FFF7A0FC10BD0000000800402C0000202A
:1023C000AC812142300000204C0000203800002069
:1023D000340000203C00002070B50446552C04D089
:1023E0005A2C7CD0A52C7BD1A0E00F210120FFF737
:1023F000ABFE642100FB01F5E81705EB105000135C
:10240000C0F16300E949086008460068002801DC63
:10241000002001E0E5480068E449086008460068DB
:10242000632801DB632001E0E0480068DF490860C1
:102430000F210320FFF788FE642100FB01F5E81758
:1024400005EB10500013401ED9490860084600688B
:10245000002801DC002001E0D5480068D44908606C
:1024600008460068632801DB632001E0D04800686B
:10247000CF4908600F210220FFF766FE642100FBB0
:1024800001F5E81705EB10500013401CC94908601E
:1024900008460068002801DC002001E0C54800680B
:1024A000C449086008460068632801DB632001E036
:1024B000C0480068BF4908600F210020FFF744FEB4
:1024C000642100FB01F5E81705EB10500013BA4931
:1024D000086008460068002803DC002003E0C4E030
:1024E00061E1B5480068B44908600846006863289F
:1024F00001DB632001E0B0480068AF4908600F21AC
:102500000620FFF721FE6421484340F6282190FB76
:10251000F1F0AA49086008460068632801DB6320DF
:1025200001E0A6480068A54908603CE10F210320AE
:10253000FFF70AFE642100FB01F5E81705EB1050D8
:102540000013C0F16300994908600846006800283C
:1025500001DC002001E095480068944908600846C5
:102560000068632801DB632001E0904800688F4920
:1025700008600F210120FFF7E7FD642100FB01F552
:10258000E81705EB10500013401E89490860084603
:102590000068002801DC002001E0854800688449CB
:1025A000086008460068632801DB632001E080487A
:1025B00000687F4908600F210020FFF7C5FD6421F6
:1025C00000FB01F5E81705EB10500013401C79499A
:1025D000086008460068002801DC002001E075481A
:1025E00000687449086008460068632801DB6320BE
:1025F00001E0704800686F4908600F210220FFF772
:10260000A3FD642100FB01F5E81705EB1050001352
:102610006949086008460068002801DC002001E0E4
:10262000654800686449086008460068632801DB63
:10263000632001E0604800685F4908600F210620C0
:10264000FFF782FD6421484340F6282190FBF1F01A
:102650005A49086008460068632801DB632001E0EE
:1026600056480068554908609DE00F210120FFF79A
:102670006BFD642100FB01F5E81705EB105000131A
:102680004A49086008460068002801DC002001E093
:10269000464800684549086008460068632801DB31
:1026A000632001E041480068404908600F21032091
:1026B000FFF74AFD642100FB01F5E81705EB105018
:1026C0000013C0F164003A49086008460068002819
:1026D00001DC002001E03648006835490860084602
:1026E0000068632801DB632001E03148006830495D
:1026F00008600F210020FFF727FD642100FB01F592
:10270000E81705EB10500013401C2A4908600846E2
:102710000068002801DC002001E026480068254907
:10272000086008460068632801DB632001E0214857
:102730000068204908600F210220FFF705FD642191
:1027400000FB01F5E81705EB105000131A4908606B
:1027500008460068002801DC002001E016480068F7
:102760001549086008460068632801DB632001E022
:1027700011480068104908600F210620FFF7E4FCAB
:102780006421484340F6282190FBF1F00B49086092
:1027900008460068632801DB632001E00748006801
:1027A0000649086000BF00BF70BD00003000002077
:1027B00038000020340000203C00002040000020B1
:1027C00000B585B0012144F20400FEF71DF94FF475
:1027D0000070ADF8100018208DF8130003208DF85C
:1027E000120004A97548FDF759FE4FF48060ADF85A
:1027F000100004208DF8130004A97048FDF74EFE68
:102800004FF4E13000900020ADF80400ADF8060070
:10281000ADF80800ADF80C000C20ADF80A006946D0
:102820006748FEF79CF901216548FEF724FA05B0D8
:1028300000BD70B504460D46E1B26148FEF788FA66
:1028400000BF40215E48FEF7F1FA0128F9D1204689
:1028500070BDF0B503460D461646002729460A2EE0
:1028600003D0002008702846F0BD33B9302001F8AD
:10287000010B002008702846F6E7002B03DA2D2014
:1028800001F8010B5B4242F210720DE093FBF2F48F
:1028900004B937B104F1300001F8010B04FB123325
:1028A00001270A2092FBF0F2002AEFDC00200870DA
:1028B0002846D9E70FB470B586B006460CA801903B
:1028C00073E00B9800785C281CD10B98401C0B908F
:1028D00000786E2809D072280FD10D213046FEF7FE
:1028E00037FA0B98401C0B900BE00A213046FEF79C
:1028F0002FFA0B98401C0B9003E00B98401C0B9098
:1029000000BF4BE00B980078252840D10B98401C65
:102910000B900078642818D0732833D1019810C820
:1029200001900BE021783046FEF712FA00BF4021FB
:102930003046FEF77BFA0028F9D0641C2078002886
:10294000F0D10B98401C0B9020E0019820C801901A
:102950000A2202A92846FFF77CFF02AC0BE021788F
:102960003046FEF7F5F900BF40213046FEF75EFA2B
:102970000028F9D0641C20780028F0D10B98401C66
:102980000B9003E00B98401C0B9000BF06E00B98E7
:1029900010F8011B0B903046FEF7DAF900BF40211A
:1029A0003046FEF743FA0028F9D00B98007800284B
:1029B00087D106B070BC5DF814FB00000008014030
:1029C0000038014080EA010210B502F000434000E7
:1029D00026D04A0023D04FEA106101EB1261C0F308
:1029E0005600C2F3560240F4000042F40002A0FB7D
:1029F0000220A1F17F014FEA0040140401D000F150
:102A0000010050EA124001D44000491EC2B20C0637
:102A100004EBD010401C4008802A02D003E00020C4
:102A200010BD20F00100002900DA0020184310BD7D
:102A30002DE9FE4F804681EA0300C00F0C4600904E
:102A400021F0004123F00045B8EB0200A94105D276
:102A50004046214690461C460B46024623F0004065
:102A6000104304D14046214603B0BDE8F08F270D46
:102A7000C7F30A00C3F30A510290401A019040289C
:102A800066DAC3F3130040F4801B0098924620B12D
:102A90000023D2EB030A63EB0B0B01985946C0F1FC
:102AA0004002504600F099F906460D4650465946F8
:102AB000019A00F0A1F910EB08006141002487EAB7
:102AC000115284EAE7731A433BD0009A3AB3019A51
:102AD000012A4FEA075210DC001B61EB02014FF0A4
:102AE000004202EA0752CDE90042001C41F5801184
:102AF00032462B4600F0D5F9B6E7001B61EB020128
:102B0000001C41F5801300185B412018A2F5001746
:102B100047EB030140EAD570B6196D4111E06D082D
:102B20004FEA360645EAC0754FEA0752001B61EBD3
:102B30000201001C41F5801149084FEA30000019DC
:102B4000514132462B4603B0BDE8F04F00F09CB92E
:102B50000098012240000023D0EB020263EBE073F7
:102B6000009821464FEAE074B8EB000061EB0401E5
:102B7000E9E783F000435BE781F0004158E72DE986
:102B8000FE4F81EA030404F0004421F00041009468
:102B90004FF0000B23F0004350EA010402D052EA48
:102BA000030404D10020014603B0BDE8F08FC3F355
:102BB0000A54C1F30A552C44A4F2F3340194A0FB47
:102BC0000254C1F3130141F48011C3F3130343F41E
:102BD000801301FB024400FB034E840A970A44EA77
:102BE000815447EA8357A4FB076802958D0A05FBC9
:102BF00007854FEA932C04FB0C542705029D4FEAEE
:102C0000065847EA1637B5EB08056EEB070C870E3A
:102C1000920E47EA811742EA8312A7FB0201B6EB44
:102C20000B0164EB00042B0D43EA0C335E1844EBFC
:102C30001C50DA465146E7FB0201C5F313044FEA84
:102C40000B3343EA14534FEA0432019C43EA060370
:102C5000A4F10C040294009CCDE900B400F021F929
:102C6000A2E72DE9F04D81EA030404F0004B21F0C6
:102C7000004514464FF0000A23F0004150EA0502D7
:102C800020D054EA01021DD0C5F30A570246C5F30D
:102C90001303C1F31300C1F30A5640F4801543F443
:102CA0008013A7EB0608101BD64608F2FD3873EB1D
:102CB000050002D308F1010801E092185B41B8F168
:102CC000000F03DA00200146BDE8F08D00204FF42C
:102CD0008011064684460EE0171B73EB050705D3EB
:102CE000121B63EB050306434CEA010C49084FEA4B
:102CF000300092185B4150EA0107EDD152EA03001F
:102D000012D082EA040083EA0501084303D10022BD
:102D10004FF0004308E0101BAB4102D20122002318
:102D200002E06FF0010253101AEB06004CEB085161
:102D300010EB0A0041EB0B01BDE8F04D00F0A4B828
:102D400096230022114600F072B800F0004220F0F5
:102D50000040C10DC0F3160040F400007F2901DAE5
:102D600000207047962903DCC1F19601C84001E0BC
:102D700096398840002AF4D04042704700F0004263
:102D800030F000400AD0C10D01F56071C0F31600AB
:102D900042EA0151C2084007114370470020014632
:102DA000704701F0004330B421F0004150EA0102C5
:102DB00006D00A0DA2F56072C1F31301002A02DCED
:102DC00030BC00207047440F44EAC104C100E01841
:102DD00030BC00EBC25000F021B8202A04DB203ABE
:102DE00000FA02F1002070479140C2F1200320FA5E
:102DF00003F3194390407047202A06DBCB17203A93
:102E000041FA02F043EAE07306E041FA02F3D040EF
:102E1000C2F1200291400843194670470029A8BF1B
:102E20007047401C490008BF20F00100704710B4F3
:102E3000B0FA80FC00FA0CF050EA010404BF10BCA8
:102E4000704749B1CCF1200421FA04F411FA0CF1D5
:102E500018BF012121430843A3EB0C01CB1D010640
:102E6000000A002BBEBF002010BC704700EBC3500F
:102E700010440029A4BF10BC7047401C490008BF83
:102E800020F0010010BC704710B5002B08DA401C80
:102E900041F1000192185B411A4301D120F0010079
:102EA00010BD2DE9F04D92469B4611B1B1FA81F269
:102EB00002E0B0FA80F220329046FFF78EFF04461F
:102EC0000F4640EA0A0041EA0B0153465A460843BE
:102ED00003D120463946BDE8F08D114653EA010082
:102EE00015D0C8F14002504600F040F805460E46A5
:102EF000504659464246FFF770FF084301D0012073
:102F000000E00020054346EAE0762C4337430A9868
:102F10004FEA4453A0EB08004FEAD4240A304FF0A4
:102F2000000244EA47544FEAD72502D50020014663
:102F3000D1E7010510196941DDE90845001969412A
:102F4000BDE8F04DA0E70000064C074D06E0E06844
:102F500040F0010394E8070098471034AC42F6D3E0
:102F6000FDF7C8F8AC2F0008CC2F0008202A04DB9E
:102F7000203A21FA02F00021704721FA02F3D040F2
:102F8000C2F12002914008431946704702E008C888
:102F9000121F08C1002AFAD170477047002001E0D3
:102FA00001C1121F002AFBD170470000CC2F00087E
:102FB000000000204C0000008C2F00081830000892
:102FC0004C000020440400009C2F000800A24A048A
:102FD00000000000000000000102030406070809C9
:102FE00000000000010203040102030406070809AF
:102FF00002040608000000000000000000000000BD
:1030000000000000000000000000000000000000C0
:083010000000000000000000B8
:04000005080000ED02
:00000001FF
